{
  "contractName": "Register",
  "abi": [
    {
      "inputs": [
        {
          "internalType": "uint32[]",
          "name": "studentIDs",
          "type": "uint32[]"
        }
      ],
      "stateMutability": "nonpayable",
      "type": "constructor"
    },
    {
      "inputs": [
        {
          "internalType": "address",
          "name": "",
          "type": "address"
        }
      ],
      "name": "EligbleVotersAddresses",
      "outputs": [
        {
          "internalType": "bool",
          "name": "",
          "type": "bool"
        }
      ],
      "stateMutability": "view",
      "type": "function"
    },
    {
      "inputs": [
        {
          "internalType": "uint32",
          "name": "",
          "type": "uint32"
        }
      ],
      "name": "RegisteredStudentIds",
      "outputs": [
        {
          "internalType": "bool",
          "name": "",
          "type": "bool"
        }
      ],
      "stateMutability": "view",
      "type": "function"
    },
    {
      "inputs": [
        {
          "internalType": "uint32",
          "name": "studentID",
          "type": "uint32"
        }
      ],
      "name": "addStudentID",
      "outputs": [],
      "stateMutability": "nonpayable",
      "type": "function"
    },
    {
      "inputs": [
        {
          "internalType": "address",
          "name": "_address",
          "type": "address"
        }
      ],
      "name": "isEligble",
      "outputs": [
        {
          "internalType": "bool",
          "name": "",
          "type": "bool"
        }
      ],
      "stateMutability": "view",
      "type": "function"
    },
    {
      "inputs": [
        {
          "internalType": "uint32",
          "name": "studentID",
          "type": "uint32"
        }
      ],
      "name": "verify",
      "outputs": [],
      "stateMutability": "nonpayable",
      "type": "function"
    }
  ],
  "bytecode": "0x608060405234801561001057600080fd5b5060405161078a38038061078a83398181016040528101906100329190610168565b60005b81518163ffffffff1610156100ae576001806000848463ffffffff16815181106100625761006161029f565b5b602002602001015163ffffffff1663ffffffff16815260200190815260200160002060006101000a81548160ff02191690831515021790555080806100a690610243565b915050610035565b5050610339565b60006100c86100c3846101d6565b6101b1565b905080838252602082019050828560208602820111156100eb576100ea610302565b5b60005b8581101561011b57816101018882610153565b8452602084019350602083019250506001810190506100ee565b5050509392505050565b600082601f83011261013a576101396102fd565b5b815161014a8482602086016100b5565b91505092915050565b60008151905061016281610322565b92915050565b60006020828403121561017e5761017d61030c565b5b600082015167ffffffffffffffff81111561019c5761019b610307565b5b6101a884828501610125565b91505092915050565b60006101bb6101cc565b90506101c78282610212565b919050565b6000604051905090565b600067ffffffffffffffff8211156101f1576101f06102ce565b5b602082029050602081019050919050565b600063ffffffff82169050919050565b61021b82610311565b810181811067ffffffffffffffff8211171561023a576102396102ce565b5b80604052505050565b600061024e82610202565b915063ffffffff82141561026557610264610270565b5b600182019050919050565b7f4e487b7100000000000000000000000000000000000000000000000000000000600052601160045260246000fd5b7f4e487b7100000000000000000000000000000000000000000000000000000000600052603260045260246000fd5b7f4e487b7100000000000000000000000000000000000000000000000000000000600052604160045260246000fd5b600080fd5b600080fd5b600080fd5b600080fd5b6000601f19601f8301169050919050565b61032b81610202565b811461033657600080fd5b50565b610442806103486000396000f3fe608060405234801561001057600080fd5b50600436106100575760003560e01c80632b5ee1951461005c578063b130c6441461008c578063ba47390d146100bc578063bac36cfb146100ec578063d942c41c14610108575b600080fd5b61007660048036038101906100719190610307565b610124565b6040516100839190610370565b60405180910390f35b6100a660048036038101906100a19190610307565b610191565b6040516100b39190610370565b60405180910390f35b6100d660048036038101906100d19190610334565b6101b1565b6040516100e39190610370565b60405180910390f35b61010660048036038101906101019190610334565b6101d1565b005b610122600480360381019061011d9190610334565b610265565b005b6000600115156000808473ffffffffffffffffffffffffffffffffffffffff1673ffffffffffffffffffffffffffffffffffffffff16815260200190815260200160002060009054906101000a900460ff1615151415610187576001905061018c565b600090505b919050565b60006020528060005260406000206000915054906101000a900460ff1681565b60016020528060005260406000206000915054906101000a900460ff1681565b60011515600160008363ffffffff1663ffffffff16815260200190815260200160002060009054906101000a900460ff16151514156102625760016000803373ffffffffffffffffffffffffffffffffffffffff1673ffffffffffffffffffffffffffffffffffffffff16815260200190815260200160002060006101000a81548160ff0219169083151502179055505b50565b60011515600160008363ffffffff1663ffffffff16815260200190815260200160002060009054906101000a900460ff16151514156102a357600080fd5b60018060008363ffffffff1663ffffffff16815260200190815260200160002060006101000a81548160ff02191690831515021790555050565b6000813590506102ec816103de565b92915050565b600081359050610301816103f5565b92915050565b60006020828403121561031d5761031c6103d9565b5b600061032b848285016102dd565b91505092915050565b60006020828403121561034a576103496103d9565b5b6000610358848285016102f2565b91505092915050565b61036a8161039d565b82525050565b60006020820190506103856000830184610361565b92915050565b6000610396826103a9565b9050919050565b60008115159050919050565b600073ffffffffffffffffffffffffffffffffffffffff82169050919050565b600063ffffffff82169050919050565b600080fd5b6103e78161038b565b81146103f257600080fd5b50565b6103fe816103c9565b811461040957600080fd5b5056fea26469706673582212200d9927500bd4e9a1874b672c8db0ad02fc87e9a571025aada9839bb62c8aa3e764736f6c63430008070033",
  "immutableReferences": {},
  "source": "pragma solidity 0.8.7;\r\n\r\ncontract Register {\r\n\r\n    mapping(address => bool) public EligbleVotersAddresses;\r\n    mapping(uint32 => bool) public RegisteredStudentIds;\r\n\r\n    constructor(uint32[] memory studentIDs) {\r\n        for (uint32 i = 0; i < studentIDs.length; i++){\r\n            RegisteredStudentIds[studentIDs[i]] = true;\r\n        }\r\n    }\r\n\r\n    function addStudentID(uint32 studentID) public {\r\n        if (RegisteredStudentIds[studentID] == true)\r\n            revert();        \r\n        else\r\n            RegisteredStudentIds[studentID] = true;\r\n    }\r\n\r\n    function isEligble(address _address) public view returns(bool) {\r\n        if (EligbleVotersAddresses[_address] == true)\r\n            return true;\r\n        else return false;\r\n    }\r\n    function verify(uint32 studentID) public {\r\n        if (RegisteredStudentIds[studentID] == true) {\r\n            EligbleVotersAddresses[msg.sender] = true;\r\n        }\r\n    }\r\n\r\n}",
  "sourcePath": "C:\\Users\\dario\\Documents\\Master Data Science\\Data Security\\truffle_vote\\contracts\\RegistrationSimple.sol",
  "compiler": {
    "name": "solc",
    "version": "0.8.7+commit.e28d00a7.Emscripten.clang"
  },
  "schemaVersion": "3.4.11",
  "updatedAt": "2023-02-03T16:16:36.800Z",
  "devdoc": {
    "kind": "dev",
    "methods": {},
    "version": 1
  },
  "userdoc": {
    "kind": "user",
    "methods": {},
    "version": 1
  }
}