{
  "contractName": "VotingContract",
  "abi": [
    {
      "inputs": [
        {
          "internalType": "bytes32",
          "name": "theQuestion",
          "type": "bytes32"
        },
        {
          "internalType": "bytes32[]",
          "name": "candidateNames",
          "type": "bytes32[]"
        },
        {
          "internalType": "address",
          "name": "_RegistrationContractAddress",
          "type": "address"
        },
        {
          "internalType": "uint256",
          "name": "_endElectionTime",
          "type": "uint256"
        }
      ],
      "stateMutability": "nonpayable",
      "type": "constructor"
    },
    {
      "inputs": [
        {
          "internalType": "uint256",
          "name": "",
          "type": "uint256"
        }
      ],
      "name": "options",
      "outputs": [
        {
          "internalType": "bytes32",
          "name": "",
          "type": "bytes32"
        }
      ],
      "stateMutability": "view",
      "type": "function"
    },
    {
      "inputs": [
        {
          "internalType": "address",
          "name": "",
          "type": "address"
        }
      ],
      "name": "verify",
      "outputs": [
        {
          "internalType": "bool",
          "name": "",
          "type": "bool"
        }
      ],
      "stateMutability": "view",
      "type": "function"
    },
    {
      "inputs": [],
      "name": "getNumVotes",
      "outputs": [
        {
          "internalType": "uint256",
          "name": "",
          "type": "uint256"
        }
      ],
      "stateMutability": "view",
      "type": "function"
    },
    {
      "inputs": [],
      "name": "getNumCandidates",
      "outputs": [
        {
          "internalType": "uint256",
          "name": "",
          "type": "uint256"
        }
      ],
      "stateMutability": "view",
      "type": "function"
    },
    {
      "inputs": [],
      "name": "getQuestion",
      "outputs": [
        {
          "internalType": "bytes32",
          "name": "",
          "type": "bytes32"
        }
      ],
      "stateMutability": "view",
      "type": "function"
    },
    {
      "inputs": [
        {
          "internalType": "address",
          "name": "_address",
          "type": "address"
        }
      ],
      "name": "isEligble",
      "outputs": [
        {
          "internalType": "bool",
          "name": "",
          "type": "bool"
        }
      ],
      "stateMutability": "view",
      "type": "function"
    },
    {
      "inputs": [
        {
          "internalType": "uint256",
          "name": "candidateIndex",
          "type": "uint256"
        }
      ],
      "name": "getCandidate",
      "outputs": [
        {
          "internalType": "bytes32",
          "name": "",
          "type": "bytes32"
        }
      ],
      "stateMutability": "view",
      "type": "function"
    },
    {
      "inputs": [
        {
          "internalType": "bytes32",
          "name": "candidate",
          "type": "bytes32"
        }
      ],
      "name": "getTotalVotesFor",
      "outputs": [
        {
          "internalType": "uint256",
          "name": "",
          "type": "uint256"
        }
      ],
      "stateMutability": "view",
      "type": "function"
    },
    {
      "inputs": [
        {
          "internalType": "bytes32",
          "name": "candidate",
          "type": "bytes32"
        }
      ],
      "name": "VoteFor",
      "outputs": [],
      "stateMutability": "nonpayable",
      "type": "function"
    },
    {
      "inputs": [],
      "name": "getPot",
      "outputs": [
        {
          "internalType": "uint256",
          "name": "",
          "type": "uint256"
        }
      ],
      "stateMutability": "view",
      "type": "function"
    },
    {
      "inputs": [],
      "name": "FinishAndDistributeTheRevenues",
      "outputs": [
        {
          "internalType": "uint256",
          "name": "",
          "type": "uint256"
        },
        {
          "internalType": "uint256",
          "name": "",
          "type": "uint256"
        }
      ],
      "stateMutability": "nonpayable",
      "type": "function"
    }
  ],
  "bytecode": "0x60806040527314723a09acff6d2a60dcdf7aa4aff308fddc160c600860006101000a81548173ffffffffffffffffffffffffffffffffffffffff021916908373ffffffffffffffffffffffffffffffffffffffff1602179055503480156200006657600080fd5b50604051620011c9380380620011c983398181016040528101906200008c919062000355565b81600960006101000a81548173ffffffffffffffffffffffffffffffffffffffff021916908373ffffffffffffffffffffffffffffffffffffffff1602179055508360028190555033600460006101000a81548173ffffffffffffffffffffffffffffffffffffffff021916908373ffffffffffffffffffffffffffffffffffffffff1602179055508251600581905550826003908051906020019062000135929190620001f1565b50806000819055506000600660006101000a81548160ff02191690831515021790555060005b8351811015620001e6578381815181106200017b576200017a62000539565b5b6020026020010151600c6000838152602001908152602001600020819055506000600b6000868481518110620001b657620001b562000539565b5b60200260200101518152602001908152602001600020819055508080620001dd90620004bc565b9150506200015b565b50505050506200060a565b82805482825590600052602060002090810192821562000230579160200282015b828111156200022f57825182559160200191906001019062000212565b5b5090506200023f919062000243565b5090565b5b808211156200025e57600081600090555060010162000244565b5090565b60006200027962000273846200040f565b620003e6565b905080838252602082019050828560208602820111156200029f576200029e6200059c565b5b60005b85811015620002d35781620002b8888262000327565b845260208401935060208301925050600181019050620002a2565b5050509392505050565b600081519050620002ee81620005bc565b92915050565b600082601f8301126200030c576200030b62000597565b5b81516200031e84826020860162000262565b91505092915050565b6000815190506200033881620005d6565b92915050565b6000815190506200034f81620005f0565b92915050565b60008060008060808587031215620003725762000371620005a6565b5b6000620003828782880162000327565b945050602085015167ffffffffffffffff811115620003a657620003a5620005a1565b5b620003b487828801620002f4565b9350506040620003c787828801620002dd565b9250506060620003da878288016200033e565b91505092959194509250565b6000620003f262000405565b905062000400828262000486565b919050565b6000604051905090565b600067ffffffffffffffff8211156200042d576200042c62000568565b5b602082029050602081019050919050565b60006200044b826200045c565b9050919050565b6000819050919050565b600073ffffffffffffffffffffffffffffffffffffffff82169050919050565b6000819050919050565b6200049182620005ab565b810181811067ffffffffffffffff82111715620004b357620004b262000568565b5b80604052505050565b6000620004c9826200047c565b91507fffffffffffffffffffffffffffffffffffffffffffffffffffffffffffffffff821415620004ff57620004fe6200050a565b5b600182019050919050565b7f4e487b7100000000000000000000000000000000000000000000000000000000600052601160045260246000fd5b7f4e487b7100000000000000000000000000000000000000000000000000000000600052603260045260246000fd5b7f4e487b7100000000000000000000000000000000000000000000000000000000600052604160045260246000fd5b600080fd5b600080fd5b600080fd5b600080fd5b6000601f19601f8301169050919050565b620005c7816200043e565b8114620005d357600080fd5b50565b620005e18162000452565b8114620005ed57600080fd5b50565b620005fb816200047c565b81146200060757600080fd5b50565b610baf806200061a6000396000f3fe608060405234801561001057600080fd5b50600436106100a95760003560e01c8063409e220511610071578063409e2205146101785780635c06b06e146101a857806363a9c3d7146101c65780638b5a8db2146101f6578063c21fd9e314610214578063eff38f9214610233576100a9565b80631925d443146100ae5780631ece7ebf146100ca5780632b5ee195146100fa57806335b8e8201461012a578063403c9fa81461015a575b600080fd5b6100c860048036038101906100c39190610805565b610251565b005b6100e460048036038101906100df9190610805565b61037e565b6040516100f1919061092f565b60405180910390f35b610114600480360381019061010f91906107ab565b6103ea565b60405161012191906108d9565b60405180910390f35b610144600480360381019061013f9190610832565b6104a3565b60405161015191906108f4565b60405180910390f35b6101626104e2565b60405161016f919061092f565b60405180910390f35b610192600480360381019061018d9190610832565b610544565b60405161019f91906108f4565b60405180910390f35b6101b061055c565b6040516101bd919061092f565b60405180910390f35b6101e060048036038101906101db91906107ab565b610566565b6040516101ed91906108d9565b60405180910390f35b6101fe610586565b60405161020b919061092f565b60405180910390f35b61021c610590565b60405161022a92919061094a565b60405180910390f35b61023b61074d565b60405161024891906108f4565b60405180910390f35b60011515600a60003373ffffffffffffffffffffffffffffffffffffffff1673ffffffffffffffffffffffffffffffffffffffff16815260200190815260200160002060009054906101000a900460ff16151514806102c3575060011515600660009054906101000a900460ff161515145b806102d457506102d2336103ea565b155b156102de57600080fd5b6001600b600083815260200190815260200160002060008282546103029190610984565b9250508190555060016007600082825461031c9190610984565b925050819055506001600a60003373ffffffffffffffffffffffffffffffffffffffff1673ffffffffffffffffffffffffffffffffffffffff16815260200190815260200160002060006101000a81548160ff02191690831515021790555050565b6000600660009054906101000a900460ff166103cf576040517f08c379a00000000000000000000000000000000000000000000000000000000081526004016103c69061090f565b60405180910390fd5b600b6000838152602001908152602001600020549050919050565b600080600960009054906101000a900473ffffffffffffffffffffffffffffffffffffffff1690508073ffffffffffffffffffffffffffffffffffffffff16632b5ee195846040518263ffffffff1660e01b815260040161044b91906108be565b60206040518083038186803b15801561046357600080fd5b505afa158015610477573d6000803e3d6000fd5b505050506040513d601f19601f8201168201806040525081019061049b91906107d8565b915050919050565b600060016005546104b49190610a0b565b8211156104c6576000801b90506104dd565b600c60008381526020019081526020016000205490505b919050565b6000600460009054906101000a900473ffffffffffffffffffffffffffffffffffffffff1673ffffffffffffffffffffffffffffffffffffffff163373ffffffffffffffffffffffffffffffffffffffff161461053e57600080fd5b47905090565b600c6020528060005260406000206000915090505481565b6000600554905090565b600a6020528060005260406000206000915054906101000a900460ff1681565b6000600754905090565b6000806000544210156105d8576040517f08c379a00000000000000000000000000000000000000000000000000000000081526004016105cf9061090f565b60405180910390fd5b600460009054906101000a900473ffffffffffffffffffffffffffffffffffffffff1673ffffffffffffffffffffffffffffffffffffffff166108fc60034761062191906109da565b9081150290604051600060405180830381858888f1935050505015801561064c573d6000803e3d6000fd5b50600860009054906101000a900473ffffffffffffffffffffffffffffffffffffffff1673ffffffffffffffffffffffffffffffffffffffff166108fc479081150290604051600060405180830381858888f193505050501580156106b5573d6000803e3d6000fd5b506001600660006101000a81548160ff021916908315150217905550600460009054906101000a900473ffffffffffffffffffffffffffffffffffffffff1673ffffffffffffffffffffffffffffffffffffffff1631600860009054906101000a900473ffffffffffffffffffffffffffffffffffffffff1673ffffffffffffffffffffffffffffffffffffffff1631915091509091565b6000600254905090565b60008135905061076681610b1d565b92915050565b60008151905061077b81610b34565b92915050565b60008135905061079081610b4b565b92915050565b6000813590506107a581610b62565b92915050565b6000602082840312156107c1576107c0610aef565b5b60006107cf84828501610757565b91505092915050565b6000602082840312156107ee576107ed610aef565b5b60006107fc8482850161076c565b91505092915050565b60006020828403121561081b5761081a610aef565b5b600061082984828501610781565b91505092915050565b60006020828403121561084857610847610aef565b5b600061085684828501610796565b91505092915050565b61086881610a3f565b82525050565b61087781610a51565b82525050565b61088681610a5d565b82525050565b6000610899601983610973565b91506108a482610af4565b602082019050919050565b6108b881610a87565b82525050565b60006020820190506108d3600083018461085f565b92915050565b60006020820190506108ee600083018461086e565b92915050565b6000602082019050610909600083018461087d565b92915050565b600060208201905081810360008301526109288161088c565b9050919050565b600060208201905061094460008301846108af565b92915050565b600060408201905061095f60008301856108af565b61096c60208301846108af565b9392505050565b600082825260208201905092915050565b600061098f82610a87565b915061099a83610a87565b9250827fffffffffffffffffffffffffffffffffffffffffffffffffffffffffffffffff038211156109cf576109ce610a91565b5b828201905092915050565b60006109e582610a87565b91506109f083610a87565b925082610a00576109ff610ac0565b5b828204905092915050565b6000610a1682610a87565b9150610a2183610a87565b925082821015610a3457610a33610a91565b5b828203905092915050565b6000610a4a82610a67565b9050919050565b60008115159050919050565b6000819050919050565b600073ffffffffffffffffffffffffffffffffffffffff82169050919050565b6000819050919050565b7f4e487b7100000000000000000000000000000000000000000000000000000000600052601160045260246000fd5b7f4e487b7100000000000000000000000000000000000000000000000000000000600052601260045260246000fd5b600080fd5b7f656c656374696f6e206973206e6f742066696e69736865642100000000000000600082015250565b610b2681610a3f565b8114610b3157600080fd5b50565b610b3d81610a51565b8114610b4857600080fd5b50565b610b5481610a5d565b8114610b5f57600080fd5b50565b610b6b81610a87565b8114610b7657600080fd5b5056fea2646970667358221220397298c2153f5ecff42cb424d5667180e1a7ef920fa29cc98e897f50b5beabaa64736f6c63430008070033",
  "immutableReferences": {},
  "source": "pragma solidity 0.8.7;\r\nimport \"./Register.sol\";\r\n    contract VotingContract {\r\n        \r\n        uint256 EndElectionTime;\r\n        bytes32 PollWinner;\r\n        bytes32 Question;\r\n        bytes32[] CandidateList;\r\n        address payable EventAdmin;\r\n        uint NumOfCand;\r\n        bool completed;\r\n        uint totalNumVotes;\r\n        address payable system = payable(0x14723A09ACff6D2A60DcdF7aA4AFf308FDDC160C);\r\n        address RegistrationContractAddress;\r\n        mapping(address => bool) public verify;\r\n        mapping(bytes32 => uint) private votes;\r\n        mapping(uint => bytes32) public options;\r\n\r\n        modifier onlyOwner {\r\n            require(msg.sender == EventAdmin);\r\n            _;\r\n        }\r\n        function getNumVotes() public view returns(uint) {\r\n            return totalNumVotes;\r\n        }\r\n        function getNumCandidates() public view returns(uint) {\r\n            return NumOfCand;\r\n        }\r\n        \r\n        function getQuestion() public view returns(bytes32) {\r\n            return Question;\r\n        }\r\n        function isEligble(address _address) public view returns(bool) {\r\n            Register reg = Register(RegistrationContractAddress);\r\n            return reg.isEligble(_address);\r\n        }\r\n\r\n        constructor (bytes32 theQuestion, bytes32[] memory candidateNames, address _RegistrationContractAddress, uint256 _endElectionTime) {\r\n            RegistrationContractAddress = _RegistrationContractAddress;\r\n            Question = theQuestion;\r\n            EventAdmin = payable(msg.sender);\r\n            NumOfCand = candidateNames.length;\r\n            CandidateList = candidateNames;\r\n            EndElectionTime = _endElectionTime;\r\n            completed = false;\r\n            for (uint i = 0; i < candidateNames.length; i++) {\r\n                options[i] = candidateNames[i];\r\n                votes[candidateNames[i]] = 0;\r\n            }\r\n        }\r\n\r\n        function getCandidate(uint candidateIndex) public view returns(bytes32) {\r\n            if (candidateIndex > NumOfCand - 1)\r\n                return (0);\r\n            else return (options[candidateIndex]);\r\n        }\r\n\r\n        function CanVote() onlyOwner private view returns(bool) {\r\n            if (verify[msg.sender] == true || completed == true || !isEligble(msg.sender))\r\n                return false;\r\n            else return true;\r\n        }\r\n\r\n        function getTotalVotesFor(bytes32 candidate) public view returns(uint) {\r\n            // this function should only be available after vote is finished\r\n            if (!completed)\r\n                revert(\"election is not finished!\");\r\n            else\r\n                return (votes[candidate]);\r\n        }\r\n\r\n        function VoteFor(bytes32 candidate) public {\r\n            if ((verify[msg.sender] == true) || (completed == true) || !isEligble(msg.sender))\r\n                revert();\r\n            else {\r\n                votes[candidate] += 1;\r\n                totalNumVotes += 1;\r\n                verify[msg.sender] = true;\r\n            }\r\n        }\r\n\r\n        function getPot() onlyOwner public view returns(uint) {\r\n            return address(this).balance;\r\n        }\r\n\r\n\r\n        function FinishAndDistributeTheRevenues() public returns(uint,uint) {\r\n            if  (block.timestamp < EndElectionTime)\r\n                revert(\"election is not finished!\");\r\n            else {\r\n                EventAdmin.transfer(address(this).balance / 3);\r\n                system.transfer(address(this).balance);\r\n                completed = true;\r\n                return (EventAdmin.balance, system.balance);\r\n            }\r\n        }\r\n\r\n\r\n    }",
  "sourcePath": "E:\\LMU\\Semester 3\\Data Security\\DApp\\truffle_vote\\contracts\\Voting.sol",
  "compiler": {
    "name": "solc",
    "version": "0.8.7+commit.e28d00a7.Emscripten.clang"
  },
  "schemaVersion": "3.4.11",
  "updatedAt": "2023-02-03T17:15:48.465Z",
  "devdoc": {
    "kind": "dev",
    "methods": {},
    "version": 1
  },
  "userdoc": {
    "kind": "user",
    "methods": {},
    "version": 1
  }
}